:0400000080312828FB
:1000060008007E1480310B1F09280A2826282100A3
:10001600111F0E280F2818282000111F1328142836
:1000260018288B31B023803126282100911C1C28EA
:100036001D2826282000911C2128222826288B31BD
:10004600BF23803126287E10090080312A2821000E
:10005600C401C501C601C701C801C901CA01CB0156
:10006600CC01CD01CE017E1020008E31CC2E200099
:1000760033088039BD003335C300B21F43284428F6
:10008600452843144308031949284A285928430A8E
:10009600031D4E284F2857280030B3000030B20009
:1000A6000030B1000030B000B21761280030B30054
:1000B6000030B2000030B1000030B000370880399F
:1000C600B8003808BD063735C200B61F6B286C2845
:1000D6006D28421442080319712872288128420AA1
:1000E600031D762877287F280030B7000030B60039
:1000F6000030B5000030B400B61789280030B700CC
:100106000030B6000030B5000030B40042080319D4
:100116008D288E2893284308031D922893289C280F
:100126000030B3000030B2000030B1000030B00043
:10013600742A3008F00036088C31A6248031710804
:100146002000C9007008C8004808B800B901BA0103
:10015600BB013B08C1003A08C0003908BF00380897
:10016600BE004908B800B901BA01BB013B08C70087
:100176003A08C6003908C5003808C4003108F0003E
:1001860035088C31A624803171082000C90070081A
:10019600C8004808B800B901BA01BB013808BE0753
:1001A6003908BF3D3A08C03D3B08C13D4908B80083
:1001B600B901BA01BB013808C4073908C53D3A0878
:1001C600C63D3B08C73D3208F00034088C31A624F2
:1001D600803171082000C9007008C8004808B800BE
:1001E600B901BA01BB013808BE073908BF3D3A0854
:1001F600C03D3B08C13D4908B800B901BA01BB0181
:100206003808C4073908C53D3A08C63D3B08C73D0E
:100216000830BE35BF0DC00DC10D890B0C29310844
:10022600F00034088C31A624803171082000C90002
:100236007008C8004808BE074908BF3D0030C03DE9
:10024600C13D3008F00035088C31A6248031710894
:100256002000C9007008C8004808BE074908BF3D0D
:100266000030C03DC13D0830BE35BF0DC00DC10DCB
:10027600890B37293008F00034088C31A6248031E8
:1002860071082000C9007008C8004808BE07490860
:10029600BF3D0030C03DC13D3108F00036088C310D
:1002A600A624803171082000C9007008C8004808DB
:1002B600C4074908C53D0030C63DC73D3208F000B9
:1002C60035088C31A624803171082000C9007008D9
:1002D600C8004808C4074908C53D0030C63DC73DAB
:1002E6003208F00036088C31A624803171082000CF
:1002F600C9007008C8004808B8004908B900BA0122
:10030600BB010830B835B90DBA0DBB0D890B85296F
:100316003808C4073908C53D3A08C63D3B08C73DFD
:100326003E08B8003F08B9004008BA004108BB00C3
:100336001830BB36BA0CB90CB80C890B9C29380896
:10034600C4073908C53D3A08C63D3B08C73D0830D5
:10035600BE35BF0DC00DC10D890BAB294308420741
:10036600B800B901B90D3808823EC800FF30393DE2
:10037600C900D4290130C435C50DC60DC70D890B7A
:10038600BE29C11FC729C829C92944140130BE3551
:10039600BF0DC00DC10D890BCA29FF30C807FF303C
:1003A600C93DC61FD729D829BD29C201C11FDC29CD
:1003B600DD29F929FF303E05B800FF303F05B900B9
:1003C600FF304005BA007F304105BB003B083A04C8
:1003D600390438040319F029F129F429C201C20AA3
:1003E600F929441CF729F829F929F12942080319A2
:1003F600FD29FE29262A0130C4070030C53D0030FC
:10040600C63D0030C73D471C092A0A2A262A440849
:10041600B8004508B9004608BA004708BB000130D5
:10042600BC00BB37BA0CB90CB80CBC0B142A3B0881
:10043600C7003A08C6003908C5003808C4000130AC
:10044600C8070030C93D4908803AB80080303802F4
:10045600031D2F2AFF304802031C322A332A3D2A65
:100466007F302000C7008030C6000030C500003055
:10047600C400682A20004908803AB8008030380253
:10048600031D472A0130480203184A2A4B2A562AD6
:1004960000302000C7000030C6000030C500003024
:1004A600C400BD01682A20004808C300FF30C40507
:1004B600FF30C5057F30C6050030C705431C642ADA
:1004C600652A662AC6174336C7003D08B8003808AD
:1004D600C7044708B3004608B2004508B1004408FF
:1004E600B000080073088039F8007335FA00F21F6F
:1004F6007D2A7E2A7F2A7A147A080319832A842A77
:10050600942A7A0A031D882A892A912A0030F30040
:100516000030F2000030F1000030F000F217F30175
:100526009C2A0030F3000030F2000030F100003069
:10053600F00077088039F900790878060319A42AAB
:10054600A52AA62A78177735F900F61FAB2AAC2A12
:10055600AD2A791479080319B12AB22AC22A790A6E
:10056600031DB62AB72ABF2A0030F7000030F6006E
:100576000030F5000030F400F617F701CA2A003003
:10058600F7000030F6000030F5000030F4007A087D
:1005960079020318CF2AD02AF72A781FD32AD42A19
:1005A600D92A80302000A0002008F8067A08FB002F
:1005B6007908FA007B08F9007008FB007408F0005F
:1005C6007B08F4007108FB007508F1007B08F50054
:1005D6007208FB007608F2007B08F6007308FB0041
:1005E6007708F3007B08F700FB0179082000A000DC
:1005F600A1012108A3007A082002A200031CA3037C
:100606002308803AA40080302402031D0C2B1A30E4
:100616002202031C0F2B102B422B73087204710449
:100626007004031D172B192B01301A2B0030FB0009
:100636000030F3000030F2000030F1000030F0002E
:100646007908FA00482B7B1C292B2A2B2E2B7B366C
:100656000138FB00302B0310FB0C701C332B342BA2
:10066600352BFB1701302000A000F337F20CF10CFC
:10067600F00CA00B382B0130A0002008FA077908EF
:100686007A02031C472B482B262B781B4B2B4C2B13
:10069600832B7A08031D502B512B5A2B0030F30065
:1006A6000030F2000030F1000030F000802C7408B9
:1006B600F0077508F13D7608F23D7708F33D731CA7
:1006C600652B662B102C7B1C692B6A2B6E2B7B36BD
:1006D6000138FB00702B0310FB0C701C732B742B62
:1006E600752BFB1701302000A000F337F20CF10C3C
:1006F600F00CA00B782B0130A0002008FA07102C74
:100706007308803A2000A0007708803A2002031D73
:10071600962B76087202031D962B75087102031D2F
:10072600962B740870020318992B9A2BD22BFF3044
:10073600A000FF30A100FF30A200FF30A300700828
:100746007402A4007108753BA5007208763BA600EA
:100756007308773BA7002408A0072508A13D2608B3
:10076600A23D2708A33D2308F3002208F200210832
:10077600F1002008F0008030A0002008F806FB09F0
:10078600FB0A7B08031DC82BC92BDA2B0130F007A7
:100796000030F13D0030F23D0030F33DDA2B7408B5
:1007A600F0027508F13B7608F23B7708F33B7308D5
:1007B600720471047004031DE12BE22B0C2C7B08E0
:1007C600031DE62BE72B0C2C0030F3000030F20063
:1007D6000030F1000030F000802C0130F035F10DD2
:1007E600F20DF30D890BF12BFB1FFA2BFB2BFC2BC8
:1007F60070147B1CFF2B002C032C0314FB0D052C03
:100806000310FB0D7A080319092C0A2C0C2C013055
:10081600FA02F21F0F2C102CF02BF901FB1F142CDF
:10082600152C232C7B087F3903191A2C1B2C1E2C04
:10083600F901F90A232C701C212C222C232C1B2CA9
:1008460079080319272C282C562C0130F007003084
:10085600F13D0030F23D0030F33D731C332C342C57
:10086600562C70082000A0007108A1007208A20092
:100876007308A3000130A400A337A20CA10CA00C9E
:10088600A40B3F2C2308F3002208F2002108F100F4
:100896002008F0007A0A0319512C522C562C0130EC
:1008A600A0002008FA077A0A03195A2C5B2C602C40
:1008B6007A08031D5F2C602C6E2C0030F30000308C
:1008C600F2000030F1000030F0007A08031D6C2CB5
:1008D6006D2C6E2CF8017A1C712C722C742CF2176C
:1008E600792C7F302000A0002008F2057A36F3002C
:1008F600F81F7E2C7F2C802CF3170800200051084F
:100906008039DB005135E200D01F8A2C8B2C8C2CD1
:10091600621462080319902C912CA12C620A031D03
:10092600952C962C9E2C0030D1000030D000003043
:10093600CF000030CE00D017D101A92C0030D10055
:100946000030D0000030CF000030CE004D08803996
:10095600D2005208DB064D35E300CC1FB32CB42C75
:10096600B52C631463080319B92CBA2CCA2C630A74
:10097600031DBE2CBF2CC72C0030CD000030CC0090
:100986000030CB000030CA00CC17CD01D22C00308D
:10099600CD000030CC000030CB000030CA004D083E
:1009A6004C044B044A04031DD92CDA2CF32C0030DA
:1009B600D1000030D0000030CF000030CE008030B3
:1009C600D0047F30D1045B08D2005208D10451080C
:1009D600CD005008CC004F08CB004E08CA002A2E86
:1009E6006208031DF72CF82C012D0030CD000030D5
:1009F600CC000030CB000030CA002A2E6208D2009C
:100A0600D3015308D50063085202D400031CD50352
:100A160054087F3EDC000030553DDD005108DA0009
:100A26005008D9004F08D8004E08D7000030D10032
:100A36000030D0000030CF000030CE000030E100A2
:100A46000030E0000030DF000030DE00E301692DF9
:100A5600630803192F2D302D4A2D0130D735D80DB7
:100A6600D90DDA0D890B312D0130CE35CF0DD00DD4
:100A7600D10D890B382DE11F412D422D432D4E14EA
:100A86000130DE35DF0DE00DE10D890B442D4D08FB
:100A96005A02031D582D4C085902031D582D4B08A8
:100AA6005802031D582D4A085702031C5B2D5C2D66
:100AB600652D61174A08D7024B08D83B4C08D93B2D
:100AC6004D08DA3B0130D2005208E3071A306302C0
:100AD600031C6E2D6F2D2B2D5A08590458045704EC
:100AE6000319762D772D902D5E14902D0130CE357D
:100AF600CF0DD00DD10D890B7A2DE11F832D842DBD
:100B0600852D4E140130DE35DF0DE00DE10D890B2C
:100B1600862DFF30DC07FF30DD3DD01F932D942D51
:100B2600792DE301E11F982D992DB52DFF305E0536
:100B3600D200FF305F05D300FF306005D4007F3060
:100B46006105D50055085404530452040319AC2D0D
:100B5600AD2DB02DE301E30AB52D4E1CB32DB42DFA
:100B6600B52DAD2D63080319B92DBA2DE22D01302F
:100B7600CE070030CF3D0030D03D0030D13D511C76
:100B8600C52DC62DE22D4E08D2004F08D3005008C1
:100B9600D4005108D5000130D600D537D40CD30C7B
:100BA600D20CD60BD02D5508D1005408D0005308CE
:100BB600CF005208CE000130DC070030DD3D5D0875
:100BC600803AD20080305202031DEB2DFF305C02CA
:100BD600031CEE2DEF2DFC2DFF302000DC00003035
:100BE600DD000030D1000030D0000030CF000030F2
:100BF600CE0020005D08803AD20080305202031DEC
:100C0600062E01305C020318092E0A2E162E20002D
:100C1600DC01DD010030D1000030D0000030CF0013
:100C26000030CE00DB0120005C08E200621C1C2EB6
:100C36001D2E1F2ED017232E7F30D2005208D0052E
:100C46006236D1005B08D2005208D104EA2C0800B3
:100C56002100AD0044302000CD007F30CC00C030F4
:100C6600CB000030CA004130B3002030B200003063
:100C7600B1000030B0006E08F0006F08F100F2011C
:100C8600F30100308F315627863173082000B700F4
:100C96007208B6007108B5007008B40080313A20B9
:100CA600863120003308D1003208D0003108CF0049
:100CB6003008CE0084318124863120004D08210081
:100CC600AC0020004C082100AB0020004B0821009E
:100CD600AA0020004A082100A9002D0886008701E5
:100CE6002C082000E70021002B082000E600210048
:100CF6002A082000E500210029082000E4008D31A3
:100D06005D25863120006408810021002D0A8600B9
:100D160087012C082000AF0021002B082000AE0020
:100D260021002A082000AD00210029082000AC007F
:100D360021002D08840085010008A000A101A20160
:100D4600A3012308F3002208F2002108F10020087D
:100D5600F00001308F315627863173082000AB0032
:100D66007208AA007108A9007008A8008C314324F3
:100D7600863120002B08B7002A08B6002908B500DE
:100D86002808B4004130B3002030B2000030B10072
:100D96000030B00080313A20863120003308E70069
:100DA6003208E6003108E5003008E4008D315D25A3
:100DB600863120006408810021002D088600870105
:100DC600413FA8002C082000AF0021002B0820007E
:100DD600AE0021002A082000AD00210029082000CD
:100DE600AC0021002D08860087010108A000A101A2
:100DF600A201A3012308F3002208F2002108F10052
:100E06002008F00000308F31562786317308200005
:100E1600AB007208AA007108A9007008A8008C31FE
:100E26004324863120002B082100A70020002A0831
:100E36002100A600200029082100A500200028087E
:100E46002100A4002D08023E860087012708200005
:100E5600AF00210026082000AE0021002508200052
:100E6600AD00210024082000AC0021002808A000C5
:100E7600A101A201A3012308F3002208F200210820
:100E8600F1002008F00000308F31562786317308B4
:100E96002000D1007208D0007108CF007008CE0083
:100EA6004130CD002030CC000030CB000030CA00ED
:100EB60084318124863120004D08AB004C08AA00FD
:100EC6004B08A9004A08A8008C314324863120002B
:100ED6002B08B7002A08B6002908B5002808B40070
:100EE6004230B300C830B2000030B1000030B0006C
:100EF60080313A20863120003308E7003208E600C8
:100F06003108E5003008E4008D315D25863120008A
:100F16006408810021002D08860087010A3001023D
:100F26000318962F972FAA2F2D0A860087010A30BD
:100F3600010203189F2FA02FAA2F2D08023E86001C
:100F460087010A300102031CA92FAA2FBA2F2D08E8
:100F560086008701093081002D0A86008701093045
:100F660081002D08023E86008701093081000800B5
:100F7600F1007108063E860087018101D62F7108AF
:100F8600063E8600870101087107F000700886009A
:100F96008701303081000130F0007108063E86007E
:100FA6008701700881077108063E860087010630B2
:100FB6000102031CDF2FE02FC22F0800F300730885
:100FC600063E860087010114FD30F2007308063ED6
:100FD60086008701720881057308023E8600870134
:100FE6007008C03F7108C13F73088600870170080A
:0A0FF600C03F7108C13F0800080069
:1016820021009D14080001302100CC000800013027
:101692002100CD0008008A30220097000800163091
:1016A20021009700080021001C08F1001B08F0002F
:1016B200080071082100D2007008D10008007108EA
:1016C2002100D4007008D300080071082100D8005E
:1016D2007008D700080071082100D6007008D500F4
:1016E200080071082100D0007008CF000800031024
:1016F20021009D1C03140030093D080072302100B6
:1017020099009801220096010800F0007008063E38
:1017120086008701010802390800F100FD30F0005F
:101722007108063E86008701700881050800F000F6
:101732002000111E9D2B9E2B992B700823009A00CE
:101742000800F0007008063E86008701063001029C
:10175200031CAC2BAE2B0130AF2B00300800200055
:1017620011132100510852040319B82BB92BBE2BB7
:1017720052088A0051080A008B310800200091109B
:1017820021004F0850040319C72BC82BCD2B50083A
:101792008A004F080A008B310800F0012000111E58
:1017A200D32BD42BDB2B23009E1ED82BD92BDB2B48
:1017B200F001F00A70080800933021009E009B019E
:1017C2009C0101309D0011170330F0000030F10040
:1017D2008B315A238B3108003E3020009B009A0146
:1017E200911021009114FF30F0000730F1008B318D
:1017F20072238B314E3020009C00080022008C01A5
:101802008D01213021008C00C6308D00F83023007C
:101812008D001F308C0024008D018C012100951752
:1018220022009D019E0108008B31FF238C318B31F8
:101832007F238C318B3150238C318B314C238C3173
:101842008B31DD238C318B31ED238C318C3184242F
:101852008C310800F2007208063E860087010108FA
:101862007207F10071088600870101088B31982305
:101872008C310130F1007208063E86008701710842
:101882008107080080302000AB062F08F3002E08E5
:10189200F2002D08F1002C08F0002B08F7002A08AE
:1018A200F6002908F5002808F400823175228C31EF
:1018B20073082000AB007208AA007108A900700822
:1018C200A8000800F0007008860087018101700AF4
:1018D2008600870181017008023E8600870181012E
:1018E2007008033E860087010030C03FC13F2200DE
:1018F2008D110D128D128C100C118C110C120C13F7
:101902008C130D100800083023009F0090309D00BA
:1019120024309E00CF309B009C010030F00000304C
:10192200F1008B3166238C310030F0000030F10081
:101932008B316C238C310030F0000030F1008B31A0
:1019420060238C312100CE010800F800F401F5017A
:101952007008F200F3017208F6007308F700781CB1
:10196200B32CB42CB82C7608F4077708F53D013077
:10197200F635F70D890BB92C0310F80C7808031D06
:10198200C32CC42CB02C7508F1007408F0000800B8
:10199200F4007408063E86008701011CD12CD22C6B
:1019A200F42C740886008701013081024131003035
:1019B200813B7F3174088600870116000104031DF4
:1019C200E32CE42CF42C7408063E86008701811473
:1019D2007408023E86008701740884008501403F36
:1019E200803F413F813F7408063E86008701011D0A
:1019F200FB2CFC2C122D7408043E86008701403F0C
:101A0200F000413FF1007008FF3EF200FF30713DEF
:101A1200F3007408043E860087017208C03F730811
:101A2200C13F0800F3007308073E86008701700873
:101A320081007308083E86008701710881007308DF
:101A4200093E8600870172088100730886008701BB
:101A52007308073E840085010008303E8100730A46
:101A6200860087012E3081007308023E86008701BE
:101A72007308083E840085010008303E8100730827
:101A8200033E860087017308093E84008501000831
:101A9200303E81007308043E860087010D308100CC
:101AA2007308053E860087010A3081007308063EEE
:101AB200860087018101080003102000660D670D72
:101AC200ED006D08031D662D672D702D0030E700B7
:101AD2000030E6000030E5000030E400CD2D64085F
:101AE200E8006508E9006608EA006708EB001F30B5
:101AF200EB36EA0CE90CE80C890B792D6808EC004E
:101B0200E617FF30E405FF30E505FF30E60500305B
:101B1200E7059630ED02ED1F8F2D902DA82D6D0853
:101B2200803A973E0318962D972D982D672D0130F8
:101B3200E736E60CE50CE40C890B992D0130E80040
:101B42006808ED07031DA62DA72D982DBD2D203069
:101B52006D02031CAD2DAE2DB82D672D0130E4357D
:101B6200E50DE60DE70D890BB02D0130ED026D0894
:101B7200031DBC2DBD2DAF2D6C080319C12DC22D27
:101B8200CD2DE409E509E609E709E40A0319E50AA6
:101B92000319E60A0319E70A0800F600322E2200AA
:101BA2008D150D128D127608860087010108F4004A
:101BB200F5017408F2007508F3007308F100720869
:101BC200F0008E314B268D317608033E8600870168
:101BD2000130C03F0030C13F4A2E22008D110D1648
:101BE2008D12760A860087010108F400F501740857
:101BF200F2007508F3007308F1007208F0008E31EC
:101C02004B268D317608033E860087010230C03FA5
:101C12000030C13F4A2E22008D110D128D1676081A
:101C2200023E860087010108F400F5017408F20003
:101C32007508F3007308F1007208F0008E314B262C
:101C42008D317608033E860087010030C03FC13FD8
:101C52004A2E7608033E860087010030C03FC13F0E
:101C62004A2E7608033E86008701403FF400413F3A
:101C7200F5007508003A03193F2E2A2E7408003A1F
:101C82000319D02D013A0319EE2D033A03190C2E34
:101C92002A2E0800A62E22008C140C158C150C1668
:101CA2000C178C170D10CB2E22008C100C158C15D6
:101CB2000C120C138C130D10CB2E22008C140C154D
:101CC2008C110C160C178C130D14CB2E22008C14B5
:101CD2000C158C150C160C138C130D14CB2E220024
:101CE2008C100C158C150C120C138C170D14CB2E9A
:101CF20022008C140C118C150C160C138C170D145D
:101D0200CB2E22008C140C118C150C160C178C1770
:101D12000D14CB2E22008C140C158C150C120C13E6
:101D22008C130D10CB2E22008C140C158C150C1656
:101D32000C178C170D14CB2E22008C140C158C153D
:101D42000C160C138C170D14CB2E7108003A0319C4
:101D5200AB2ECB2E7008003A03194C2E013A031910
:101D6200552E033A03195E2E013A0319672E073ADC
:101D72000319702E013A0319792E033A0319822EA0
:101D8200013A03198B2E0F3A0319942E013A0319C3
:101D92009D2ECB2E08008B170B178C3115248E31FC
:101DA200C830F0000030F100AE308731E1278E31CB
:101DB200B5308731BB278E31BF308C3163248E31F1
:101DC2004830F0000B30F1008B3172238E314430F9
:101DD200F0000B30F1008B315A238E3121004D037C
:101DE200031DF42EF52E012FCD01AE308C31C92406
:101DF2008E310030F200F300BF308D31CE258E31AE
:101E0200AE308B3186238E31003A0319092F0A2F07
:101E1200112FAE308B318E238E318B3141238E3197
:101E22008B3178238E31003A0319182F192F3E2F48
:101E320021004C03031D1E2F1F2F3E2FCC018B317F
:101E420054238E3171082100C9007008C800490866
:101E52002000EF00210048082000EE00BF3086314C
:101E62002B268E3121003F08F0004008F100410886
:101E7200F200B5308D3113258E318B31CE238E3168
:101E8200003A0319452F462FEF2EB5308B31A2238E
:101E92008E31003A03194E2F4F2FEF2EB5308C3171
:101EA2002B248E31EF2E80312828F8007808031970
:101EB2005B2F5C2F702FF31F5F2F602F702F700925
:101EC200FA007109FB007209FC007309FD00FA0AAD
:101ED2000319FB0A0319FC0A0319FD0A782F730878
:101EE200FD007208FC007108FB007008FA0073081C
:101EF200720471047004031D7F2F802F892F00301C
:101F0200F3000030F2000030F1000030F000FF2F4B
:101F12009630F900972F0130F4007408F907013068
:101F2200FD36FC0CFB0CFA0C890B912FFE307D0563
:101F3200031D9C2F9D2F8C2FB12F0130F4007408AC
:101F4200F9070130FA070030FB3D0030FC3D00305C
:101F5200FD3D0130FD36FC0CFB0CFA0C890BAB2F5E
:101F6200FF307D05031DB62FB72F9E2FC12F0130E5
:101F7200F9020130FA35FB0DFC0DFD0D890BBB2F6B
:101F8200FC1BC42FC52FCB2F023079020318CA2F96
:101F9200CB2FB82F7918CE2FCF2FD72FFF30FA059E
:101FA200FF30FB057F30FC05FF30FD050310F90C07
:101FB2007908F400F501F601F7011830F435F50D52
:101FC200F60DF70D890BDF2F7408FA047508FB0470
:101FD2007608FC047708FD0478080319F12FF22F24
:101FE200F72FF31FF52FF62FF72FFD177D08F300BC
:0E1FF2007C08F2007B08F1007A08F00008007D
:020000040001F9
:08000000FF3FFF3FFF3FFF3F00
:04000E00E43FFF3E8E
:00000001FF
